{
    "address": "0xe7f1725E7734CE288F8367e1Bb143E90bb3F0512",
    "abi": [
        {
            "inputs": [
                {
                    "internalType": "address",
                    "name": "priceFeedAddress",
                    "type": "address"
                }
            ],
            "stateMutability": "nonpayable",
            "type": "constructor"
        },
        {
            "inputs": [],
            "name": "FundMe__NotOwner",
            "type": "error"
        },
        {
            "inputs": [],
            "name": "MINIMUM_USD",
            "outputs": [
                {
                    "internalType": "uint256",
                    "name": "",
                    "type": "uint256"
                }
            ],
            "stateMutability": "view",
            "type": "function"
        },
        {
            "inputs": [],
            "name": "cheapWithdraw",
            "outputs": [],
            "stateMutability": "payable",
            "type": "function"
        },
        {
            "inputs": [],
            "name": "fund",
            "outputs": [],
            "stateMutability": "payable",
            "type": "function"
        },
        {
            "inputs": [
                {
                    "internalType": "address",
                    "name": "funder",
                    "type": "address"
                }
            ],
            "name": "getAddressToAmountFunded",
            "outputs": [
                {
                    "internalType": "uint256",
                    "name": "",
                    "type": "uint256"
                }
            ],
            "stateMutability": "view",
            "type": "function"
        },
        {
            "inputs": [
                {
                    "internalType": "uint256",
                    "name": "index",
                    "type": "uint256"
                }
            ],
            "name": "getFunder",
            "outputs": [
                {
                    "internalType": "address",
                    "name": "",
                    "type": "address"
                }
            ],
            "stateMutability": "view",
            "type": "function"
        },
        {
            "inputs": [],
            "name": "getOwner",
            "outputs": [
                {
                    "internalType": "address",
                    "name": "",
                    "type": "address"
                }
            ],
            "stateMutability": "view",
            "type": "function"
        },
        {
            "inputs": [],
            "name": "getPriceFeed",
            "outputs": [
                {
                    "internalType": "contract AggregatorV3Interface",
                    "name": "",
                    "type": "address"
                }
            ],
            "stateMutability": "view",
            "type": "function"
        },
        {
            "inputs": [],
            "name": "withdraw",
            "outputs": [],
            "stateMutability": "payable",
            "type": "function"
        }
    ],
    "transactionHash": "0x34afc86a5b9ed2918431b811d1b265de87703da0ac784c184660e6f82a3b0b1a",
    "args": [
        "0x5FbDB2315678afecb367f032d93F642f64180aa3"
    ],
    "numDeployments": 1,
    "solcInputHash": "5ae801494eb4b7caaa5e10aabc611e81",
    "bytecode": "0x60a06040523480156200001157600080fd5b50604051620012c4380380620012c4833981810160405281019062000037919062000120565b3373ffffffffffffffffffffffffffffffffffffffff1660808173ffffffffffffffffffffffffffffffffffffffff1660601b8152505080600260006101000a81548173ffffffffffffffffffffffffffffffffffffffff021916908373ffffffffffffffffffffffffffffffffffffffff1602179055505062000152565b600080fd5b600073ffffffffffffffffffffffffffffffffffffffff82169050919050565b6000620000e882620000bb565b9050919050565b620000fa81620000db565b81146200010657600080fd5b50565b6000815190506200011a81620000ef565b92915050565b600060208284031215620001395762000138620000b6565b5b6000620001498482850162000109565b91505092915050565b60805160601c61113e62000186600039600081816101e3015281816103d90152818161047101526106c0015261113e6000f3fe60806040526004361061007b5760003560e01c8063893d20e81161004e578063893d20e8146100fc5780639e87a5cd14610127578063b60d428814610152578063d7b4750c1461015c5761007b565b80630343fb2514610080578063206ddccd146100bd5780633ccfd60b146100c75780636b69a592146100d1575b600080fd5b34801561008c57600080fd5b506100a760048036038101906100a29190610a76565b610199565b6040516100b49190610abc565b60405180910390f35b6100c56101e1565b005b6100cf61046f565b005b3480156100dd57600080fd5b506100e66106af565b6040516100f39190610abc565b60405180910390f35b34801561010857600080fd5b506101116106bc565b60405161011e9190610ae6565b60405180910390f35b34801561013357600080fd5b5061013c6106e4565b6040516101499190610b60565b60405180910390f35b61015a61070e565b005b34801561016857600080fd5b50610183600480360381019061017e9190610ba7565b610848565b6040516101909190610ae6565b60405180910390f35b60008060008373ffffffffffffffffffffffffffffffffffffffff1673ffffffffffffffffffffffffffffffffffffffff168152602001908152602001600020549050919050565b7f000000000000000000000000000000000000000000000000000000000000000073ffffffffffffffffffffffffffffffffffffffff163373ffffffffffffffffffffffffffffffffffffffff1614610266576040517f579610db00000000000000000000000000000000000000000000000000000000815260040160405180910390fd5b600060018054806020026020016040519081016040528092919081815260200182805480156102ea57602002820191906000526020600020905b8160009054906101000a900473ffffffffffffffffffffffffffffffffffffffff1673ffffffffffffffffffffffffffffffffffffffff16815260200190600101908083116102a0575b5050505050905060005b815181101561037457600082828151811061031257610311610bd4565b5b6020026020010151905060008060008373ffffffffffffffffffffffffffffffffffffffff1673ffffffffffffffffffffffffffffffffffffffff1681526020019081526020016000208190555050808061036c90610c32565b9150506102f4565b50600067ffffffffffffffff8111156103905761038f610c7b565b5b6040519080825280602002602001820160405280156103be5781602001602082028036833780820191505090505b50600190805190602001906103d492919061096c565b5060007f000000000000000000000000000000000000000000000000000000000000000073ffffffffffffffffffffffffffffffffffffffff164760405161041b90610cdb565b60006040518083038185875af1925050503d8060008114610458576040519150601f19603f3d011682016040523d82523d6000602084013e61045d565b606091505b505090508061046b57600080fd5b5050565b7f000000000000000000000000000000000000000000000000000000000000000073ffffffffffffffffffffffffffffffffffffffff163373ffffffffffffffffffffffffffffffffffffffff16146104f4576040517f579610db00000000000000000000000000000000000000000000000000000000815260040160405180910390fd5b60005b60018054905081101561059f5760006001828154811061051a57610519610bd4565b5b9060005260206000200160009054906101000a900473ffffffffffffffffffffffffffffffffffffffff16905060008060008373ffffffffffffffffffffffffffffffffffffffff1673ffffffffffffffffffffffffffffffffffffffff1681526020019081526020016000208190555050808061059790610c32565b9150506104f7565b50600067ffffffffffffffff8111156105bb576105ba610c7b565b5b6040519080825280602002602001820160405280156105e95781602001602082028036833780820191505090505b50600190805190602001906105ff92919061096c565b5060003373ffffffffffffffffffffffffffffffffffffffff164760405161062690610cdb565b60006040518083038185875af1925050503d8060008114610663576040519150601f19603f3d011682016040523d82523d6000602084013e610668565b606091505b50509050806106ac576040517f08c379a00000000000000000000000000000000000000000000000000000000081526004016106a390610d4d565b60405180910390fd5b50565b6802b5e3af16b188000081565b60007f0000000000000000000000000000000000000000000000000000000000000000905090565b6000600260009054906101000a900473ffffffffffffffffffffffffffffffffffffffff16905090565b6802b5e3af16b188000061074d600260009054906101000a900473ffffffffffffffffffffffffffffffffffffffff163461089090919063ffffffff16565b101561078e576040517f08c379a000000000000000000000000000000000000000000000000000000000815260040161078590610db9565b60405180910390fd5b346000803373ffffffffffffffffffffffffffffffffffffffff1673ffffffffffffffffffffffffffffffffffffffff16815260200190815260200160002060008282546107dc9190610dd9565b925050819055506001339080600181540180825580915050600190039060005260206000200160009091909190916101000a81548173ffffffffffffffffffffffffffffffffffffffff021916908373ffffffffffffffffffffffffffffffffffffffff160217905550565b60006001828154811061085e5761085d610bd4565b5b9060005260206000200160009054906101000a900473ffffffffffffffffffffffffffffffffffffffff169050919050565b60008061089c836108cc565b90506000670de0b6b3a764000085836108b59190610e2f565b6108bf9190610eb8565b9050809250505092915050565b6000808273ffffffffffffffffffffffffffffffffffffffff1663feaf968c6040518163ffffffff1660e01b815260040160a06040518083038186803b15801561091557600080fd5b505afa158015610929573d6000803e3d6000fd5b505050506040513d601f19601f8201168201806040525081019061094d9190610f76565b5050509150506402540be400816109649190610ff1565b915050919050565b8280548282559060005260206000209081019282156109e5579160200282015b828111156109e45782518260006101000a81548173ffffffffffffffffffffffffffffffffffffffff021916908373ffffffffffffffffffffffffffffffffffffffff1602179055509160200191906001019061098c565b5b5090506109f291906109f6565b5090565b5b80821115610a0f5760008160009055506001016109f7565b5090565b600080fd5b600073ffffffffffffffffffffffffffffffffffffffff82169050919050565b6000610a4382610a18565b9050919050565b610a5381610a38565b8114610a5e57600080fd5b50565b600081359050610a7081610a4a565b92915050565b600060208284031215610a8c57610a8b610a13565b5b6000610a9a84828501610a61565b91505092915050565b6000819050919050565b610ab681610aa3565b82525050565b6000602082019050610ad16000830184610aad565b92915050565b610ae081610a38565b82525050565b6000602082019050610afb6000830184610ad7565b92915050565b6000819050919050565b6000610b26610b21610b1c84610a18565b610b01565b610a18565b9050919050565b6000610b3882610b0b565b9050919050565b6000610b4a82610b2d565b9050919050565b610b5a81610b3f565b82525050565b6000602082019050610b756000830184610b51565b92915050565b610b8481610aa3565b8114610b8f57600080fd5b50565b600081359050610ba181610b7b565b92915050565b600060208284031215610bbd57610bbc610a13565b5b6000610bcb84828501610b92565b91505092915050565b7f4e487b7100000000000000000000000000000000000000000000000000000000600052603260045260246000fd5b7f4e487b7100000000000000000000000000000000000000000000000000000000600052601160045260246000fd5b6000610c3d82610aa3565b91507fffffffffffffffffffffffffffffffffffffffffffffffffffffffffffffffff821415610c7057610c6f610c03565b5b600182019050919050565b7f4e487b7100000000000000000000000000000000000000000000000000000000600052604160045260246000fd5b600081905092915050565b50565b6000610cc5600083610caa565b9150610cd082610cb5565b600082019050919050565b6000610ce682610cb8565b9150819050919050565b600082825260208201905092915050565b7f43616c6c206661696c6564000000000000000000000000000000000000000000600082015250565b6000610d37600b83610cf0565b9150610d4282610d01565b602082019050919050565b60006020820190508181036000830152610d6681610d2a565b9050919050565b7f596f75206e65656420746f207370656e64206d6f726520455448210000000000600082015250565b6000610da3601b83610cf0565b9150610dae82610d6d565b602082019050919050565b60006020820190508181036000830152610dd281610d96565b9050919050565b6000610de482610aa3565b9150610def83610aa3565b9250827fffffffffffffffffffffffffffffffffffffffffffffffffffffffffffffffff03821115610e2457610e23610c03565b5b828201905092915050565b6000610e3a82610aa3565b9150610e4583610aa3565b9250817fffffffffffffffffffffffffffffffffffffffffffffffffffffffffffffffff0483118215151615610e7e57610e7d610c03565b5b828202905092915050565b7f4e487b7100000000000000000000000000000000000000000000000000000000600052601260045260246000fd5b6000610ec382610aa3565b9150610ece83610aa3565b925082610ede57610edd610e89565b5b828204905092915050565b600069ffffffffffffffffffff82169050919050565b610f0881610ee9565b8114610f1357600080fd5b50565b600081519050610f2581610eff565b92915050565b6000819050919050565b610f3e81610f2b565b8114610f4957600080fd5b50565b600081519050610f5b81610f35565b92915050565b600081519050610f7081610b7b565b92915050565b600080600080600060a08688031215610f9257610f91610a13565b5b6000610fa088828901610f16565b9550506020610fb188828901610f4c565b9450506040610fc288828901610f61565b9350506060610fd388828901610f61565b9250506080610fe488828901610f16565b9150509295509295909350565b6000610ffc82610f2b565b915061100783610f2b565b9250827f7fffffffffffffffffffffffffffffffffffffffffffffffffffffffffffffff048211600084136000841316161561104657611045610c03565b5b817f8000000000000000000000000000000000000000000000000000000000000000058312600084126000841316161561108357611082610c03565b5b827f800000000000000000000000000000000000000000000000000000000000000005821260008413600084121616156110c0576110bf610c03565b5b827f7fffffffffffffffffffffffffffffffffffffffffffffffffffffffffffffff05821260008412600084121616156110fd576110fc610c03565b5b82820290509291505056fea2646970667358221220d25a70a07f7e6ab34dd40ae8d94a407f3ff808732b6b728022f29f432051889764736f6c63430008080033",
    "devdoc": {
        "kind": "dev",
        "methods": {
            "fund()": {
                "details": "This implments price feeds as our library"
            }
        },
        "version": 1
    },
    "userdoc": {
        "kind": "user",
        "methods": {
            "fund()": {
                "notice": "This function funds this  contract"
            }
        },
        "version": 1
    },
    "storageLayout": {
        "storage": [
            {
                "astId": 58,
                "contract": "contracts/FundMe.sol:FundMe",
                "label": "s_addressToAmountFunded",
                "offset": 0,
                "slot": "0",
                "type": "t_mapping(t_address,t_uint256)"
            },
            {
                "astId": 61,
                "contract": "contracts/FundMe.sol:FundMe",
                "label": "s_funders",
                "offset": 0,
                "slot": "1",
                "type": "t_array(t_address)dyn_storage"
            },
            {
                "astId": 73,
                "contract": "contracts/FundMe.sol:FundMe",
                "label": "s_priceFeed",
                "offset": 0,
                "slot": "2",
                "type": "t_contract(AggregatorV3Interface)45"
            }
        ],
        "types": {
            "t_address": {
                "encoding": "inplace",
                "label": "address",
                "numberOfBytes": "20"
            },
            "t_array(t_address)dyn_storage": {
                "base": "t_address",
                "encoding": "dynamic_array",
                "label": "address[]",
                "numberOfBytes": "32"
            },
            "t_contract(AggregatorV3Interface)45": {
                "encoding": "inplace",
                "label": "contract AggregatorV3Interface",
                "numberOfBytes": "20"
            },
            "t_mapping(t_address,t_uint256)": {
                "encoding": "mapping",
                "key": "t_address",
                "label": "mapping(address => uint256)",
                "numberOfBytes": "32",
                "value": "t_uint256"
            },
            "t_uint256": {
                "encoding": "inplace",
                "label": "uint256",
                "numberOfBytes": "32"
            }
        }
    }
}